{
  "contractName": "Chest",
  "abi": [
    {
      "payable": true,
      "stateMutability": "payable",
      "type": "fallback"
    },
    {
      "constant": false,
      "inputs": [
        {
          "internalType": "address payable",
          "name": "_receiver",
          "type": "address"
        }
      ],
      "name": "send",
      "outputs": [],
      "payable": true,
      "stateMutability": "payable",
      "type": "function"
    }
  ],
  "bytecode": "0x6080604052348015600f57600080fd5b5060cd8061001e6000396000f3fe608060405260043610601c5760003560e01c80633e58c58c14601e575b005b605d60048036036020811015603257600080fd5b81019080803573ffffffffffffffffffffffffffffffffffffffff169060200190929190505050605f565b005b8073ffffffffffffffffffffffffffffffffffffffff166108fc349081150290604051600060405180830381858888f19350505050505056fea265627a7a72315820362a6bf62ddf45d02bde83ee15187bdeb59a6d59f0ff194f5d85bbf18f60f52d64736f6c63430005100032",
  "source": "pragma solidity >=0.4.21 <0.7.0;\r\n\r\ncontract Chest { \r\n\r\n      function () external payable {\r\n\r\n  }\r\n    function send (address payable _receiver) public payable {\r\n    _receiver.send(msg.value);\r\n  }\r\n}",
  "sourcePath": "C:\\Users\\marko\\Documents\\GitHub\\Blockchain-Demo\\contracts\\Chest.sol",
  "compiler": {
    "name": "solc",
    "version": "0.5.16+commit.9c3226ce.Emscripten.clang"
  },
  "schemaVersion": "3.0.23",
  "updatedAt": "2020-04-06T20:09:46.064Z",
  "devdoc": {
    "methods": {}
  },
  "userdoc": {
    "methods": {}
  }
}