{
  "contractName": "SimpleStorage",
  "abi": [
    {
      "payable": true,
      "stateMutability": "payable",
      "type": "fallback"
    },
    {
      "constant": false,
      "inputs": [
        {
          "internalType": "uint256",
          "name": "x",
          "type": "uint256"
        }
      ],
      "name": "set",
      "outputs": [],
      "payable": false,
      "stateMutability": "nonpayable",
      "type": "function"
    },
    {
      "constant": true,
      "inputs": [],
      "name": "get",
      "outputs": [
        {
          "internalType": "uint256",
          "name": "",
          "type": "uint256"
        }
      ],
      "payable": false,
      "stateMutability": "view",
      "type": "function"
    },
    {
      "constant": false,
      "inputs": [
        {
          "internalType": "address payable",
          "name": "_receiver",
          "type": "address"
        }
      ],
      "name": "send",
      "outputs": [],
      "payable": true,
      "stateMutability": "payable",
      "type": "function"
    }
  ],
  "bytecode": "0x608060405234801561001057600080fd5b50610161806100206000396000f3fe6080604052600436106100345760003560e01c80633e58c58c1461003657806360fe47b11461007a5780636d4ce63c146100b5575b005b6100786004803603602081101561004c57600080fd5b81019080803573ffffffffffffffffffffffffffffffffffffffff1690602001909291905050506100e0565b005b34801561008657600080fd5b506100b36004803603602081101561009d57600080fd5b8101908080359060200190929190505050610119565b005b3480156100c157600080fd5b506100ca610123565b6040518082815260200191505060405180910390f35b8073ffffffffffffffffffffffffffffffffffffffff166108fc349081150290604051600060405180830381858888f193505050505050565b8060008190555050565b6000805490509056fea265627a7a723158204f7114d156b9782c4248f67235e21f8abeda09ea1905ceb9b3f5c12b5b140c4c64736f6c63430005100032",
  "source": "pragma solidity >=0.4.21 <0.7.0;\n\ncontract SimpleStorage {\n  uint storedData;\n\n  function set(uint x) public {\n    storedData = x;\n  }\n\n  function get() public view returns (uint) {\n    return storedData;\n  }\n\n  function () external payable {\n  }\n  function send (address payable _receiver) public payable {\n    _receiver.send(msg.value);\n  }\n}\n\n",
  "sourcePath": "C:\\Users\\marko\\Documents\\GitHub\\Blockchain-Demo\\contracts\\SimpleStorage.sol",
  "compiler": {
    "name": "solc",
    "version": "0.5.16+commit.9c3226ce.Emscripten.clang"
  },
  "schemaVersion": "3.0.23",
  "updatedAt": "2020-04-06T20:39:26.435Z",
  "networkType": "ethereum",
  "devdoc": {
    "methods": {}
  },
  "userdoc": {
    "methods": {}
  }
}